{
  "contractName": "TokenERC721",
  "abi": [
    {
      "inputs": [
        {
          "internalType": "string",
          "name": "_name",
          "type": "string"
        },
        {
          "internalType": "string",
          "name": "_symbol",
          "type": "string"
        },
        {
          "internalType": "address",
          "name": "_erc20Token",
          "type": "address"
        }
      ],
      "stateMutability": "nonpayable",
      "type": "constructor"
    },
    {
      "anonymous": false,
      "inputs": [
        {
          "indexed": true,
          "internalType": "address",
          "name": "owner",
          "type": "address"
        },
        {
          "indexed": true,
          "internalType": "address",
          "name": "approved",
          "type": "address"
        },
        {
          "indexed": true,
          "internalType": "uint256",
          "name": "tokenId",
          "type": "uint256"
        }
      ],
      "name": "Approval",
      "type": "event"
    },
    {
      "anonymous": false,
      "inputs": [
        {
          "indexed": true,
          "internalType": "address",
          "name": "owner",
          "type": "address"
        },
        {
          "indexed": true,
          "internalType": "address",
          "name": "operator",
          "type": "address"
        },
        {
          "indexed": false,
          "internalType": "bool",
          "name": "approved",
          "type": "bool"
        }
      ],
      "name": "ApprovalForAll",
      "type": "event"
    },
    {
      "anonymous": false,
      "inputs": [
        {
          "indexed": false,
          "internalType": "uint256",
          "name": "tokenId",
          "type": "uint256"
        },
        {
          "indexed": false,
          "internalType": "bool",
          "name": "success",
          "type": "bool"
        }
      ],
      "name": "BuyToken",
      "type": "event"
    },
    {
      "anonymous": false,
      "inputs": [
        {
          "indexed": false,
          "internalType": "uint256",
          "name": "tokenId",
          "type": "uint256"
        },
        {
          "indexed": false,
          "internalType": "address",
          "name": "owner",
          "type": "address"
        },
        {
          "indexed": false,
          "internalType": "uint256",
          "name": "price",
          "type": "uint256"
        }
      ],
      "name": "GetPrice",
      "type": "event"
    },
    {
      "anonymous": false,
      "inputs": [
        {
          "indexed": true,
          "internalType": "address",
          "name": "previousOwner",
          "type": "address"
        },
        {
          "indexed": true,
          "internalType": "address",
          "name": "newOwner",
          "type": "address"
        }
      ],
      "name": "OwnershipTransferred",
      "type": "event"
    },
    {
      "anonymous": false,
      "inputs": [
        {
          "indexed": true,
          "internalType": "address",
          "name": "from",
          "type": "address"
        },
        {
          "indexed": true,
          "internalType": "address",
          "name": "to",
          "type": "address"
        },
        {
          "indexed": true,
          "internalType": "uint256",
          "name": "tokenId",
          "type": "uint256"
        }
      ],
      "name": "Transfer",
      "type": "event"
    },
    {
      "inputs": [
        {
          "internalType": "address",
          "name": "to",
          "type": "address"
        },
        {
          "internalType": "uint256",
          "name": "tokenId",
          "type": "uint256"
        }
      ],
      "name": "approve",
      "outputs": [],
      "stateMutability": "nonpayable",
      "type": "function"
    },
    {
      "inputs": [
        {
          "internalType": "address",
          "name": "owner",
          "type": "address"
        }
      ],
      "name": "balanceOf",
      "outputs": [
        {
          "internalType": "uint256",
          "name": "",
          "type": "uint256"
        }
      ],
      "stateMutability": "view",
      "type": "function",
      "constant": true
    },
    {
      "inputs": [
        {
          "internalType": "uint256",
          "name": "tokenId",
          "type": "uint256"
        }
      ],
      "name": "getApproved",
      "outputs": [
        {
          "internalType": "address",
          "name": "",
          "type": "address"
        }
      ],
      "stateMutability": "view",
      "type": "function",
      "constant": true
    },
    {
      "inputs": [
        {
          "internalType": "address",
          "name": "owner",
          "type": "address"
        },
        {
          "internalType": "address",
          "name": "operator",
          "type": "address"
        }
      ],
      "name": "isApprovedForAll",
      "outputs": [
        {
          "internalType": "bool",
          "name": "",
          "type": "bool"
        }
      ],
      "stateMutability": "view",
      "type": "function",
      "constant": true
    },
    {
      "inputs": [],
      "name": "name",
      "outputs": [
        {
          "internalType": "string",
          "name": "",
          "type": "string"
        }
      ],
      "stateMutability": "view",
      "type": "function",
      "constant": true
    },
    {
      "inputs": [],
      "name": "owner",
      "outputs": [
        {
          "internalType": "address",
          "name": "",
          "type": "address"
        }
      ],
      "stateMutability": "view",
      "type": "function",
      "constant": true
    },
    {
      "inputs": [
        {
          "internalType": "uint256",
          "name": "tokenId",
          "type": "uint256"
        }
      ],
      "name": "ownerOf",
      "outputs": [
        {
          "internalType": "address",
          "name": "",
          "type": "address"
        }
      ],
      "stateMutability": "view",
      "type": "function",
      "constant": true
    },
    {
      "inputs": [],
      "name": "renounceOwnership",
      "outputs": [],
      "stateMutability": "nonpayable",
      "type": "function"
    },
    {
      "inputs": [
        {
          "internalType": "address",
          "name": "from",
          "type": "address"
        },
        {
          "internalType": "address",
          "name": "to",
          "type": "address"
        },
        {
          "internalType": "uint256",
          "name": "tokenId",
          "type": "uint256"
        }
      ],
      "name": "safeTransferFrom",
      "outputs": [],
      "stateMutability": "nonpayable",
      "type": "function"
    },
    {
      "inputs": [
        {
          "internalType": "address",
          "name": "from",
          "type": "address"
        },
        {
          "internalType": "address",
          "name": "to",
          "type": "address"
        },
        {
          "internalType": "uint256",
          "name": "tokenId",
          "type": "uint256"
        },
        {
          "internalType": "bytes",
          "name": "_data",
          "type": "bytes"
        }
      ],
      "name": "safeTransferFrom",
      "outputs": [],
      "stateMutability": "nonpayable",
      "type": "function"
    },
    {
      "inputs": [
        {
          "internalType": "address",
          "name": "operator",
          "type": "address"
        },
        {
          "internalType": "bool",
          "name": "approved",
          "type": "bool"
        }
      ],
      "name": "setApprovalForAll",
      "outputs": [],
      "stateMutability": "nonpayable",
      "type": "function"
    },
    {
      "inputs": [
        {
          "internalType": "bytes4",
          "name": "interfaceId",
          "type": "bytes4"
        }
      ],
      "name": "supportsInterface",
      "outputs": [
        {
          "internalType": "bool",
          "name": "",
          "type": "bool"
        }
      ],
      "stateMutability": "view",
      "type": "function",
      "constant": true
    },
    {
      "inputs": [],
      "name": "symbol",
      "outputs": [
        {
          "internalType": "string",
          "name": "",
          "type": "string"
        }
      ],
      "stateMutability": "view",
      "type": "function",
      "constant": true
    },
    {
      "inputs": [
        {
          "internalType": "uint256",
          "name": "tokenId",
          "type": "uint256"
        }
      ],
      "name": "tokenURI",
      "outputs": [
        {
          "internalType": "string",
          "name": "",
          "type": "string"
        }
      ],
      "stateMutability": "view",
      "type": "function",
      "constant": true
    },
    {
      "inputs": [
        {
          "internalType": "address",
          "name": "from",
          "type": "address"
        },
        {
          "internalType": "address",
          "name": "to",
          "type": "address"
        },
        {
          "internalType": "uint256",
          "name": "tokenId",
          "type": "uint256"
        }
      ],
      "name": "transferFrom",
      "outputs": [],
      "stateMutability": "nonpayable",
      "type": "function"
    },
    {
      "inputs": [
        {
          "internalType": "address",
          "name": "newOwner",
          "type": "address"
        }
      ],
      "name": "transferOwnership",
      "outputs": [],
      "stateMutability": "nonpayable",
      "type": "function"
    },
    {
      "inputs": [
        {
          "internalType": "uint256",
          "name": "tokenId",
          "type": "uint256"
        }
      ],
      "name": "getTokenDetails",
      "outputs": [
        {
          "internalType": "string",
          "name": "",
          "type": "string"
        }
      ],
      "stateMutability": "view",
      "type": "function",
      "constant": true
    },
    {
      "inputs": [
        {
          "internalType": "string",
          "name": "uri",
          "type": "string"
        }
      ],
      "name": "mint",
      "outputs": [],
      "stateMutability": "nonpayable",
      "type": "function"
    },
    {
      "inputs": [],
      "name": "getAllTokenForUser",
      "outputs": [
        {
          "internalType": "uint256[]",
          "name": "",
          "type": "uint256[]"
        }
      ],
      "stateMutability": "view",
      "type": "function",
      "constant": true
    },
    {
      "inputs": [],
      "name": "getAllNotOwnToken",
      "outputs": [
        {
          "internalType": "uint256[]",
          "name": "",
          "type": "uint256[]"
        }
      ],
      "stateMutability": "view",
      "type": "function",
      "constant": true
    },
    {
      "inputs": [
        {
          "internalType": "uint256",
          "name": "tokenId",
          "type": "uint256"
        }
      ],
      "name": "buyToken",
      "outputs": [
        {
          "internalType": "bool",
          "name": "",
          "type": "bool"
        }
      ],
      "stateMutability": "payable",
      "type": "function",
      "payable": true
    },
    {
      "inputs": [
        {
          "internalType": "address",
          "name": "account",
          "type": "address"
        }
      ],
      "name": "getBalanceOferc20",
      "outputs": [
        {
          "internalType": "uint256",
          "name": "",
          "type": "uint256"
        }
      ],
      "stateMutability": "view",
      "type": "function",
      "constant": true
    },
    {
      "inputs": [
        {
          "internalType": "uint256",
          "name": "tokenId",
          "type": "uint256"
        }
      ],
      "name": "getPrice",
      "outputs": [],
      "stateMutability": "nonpayable",
      "type": "function"
    }
  ],
  "bytecode": "0x608060405260006007553480156200001657600080fd5b5060405162003db438038062003db483398181016040528101906200003c9190620002ef565b8282816000908051906020019062000056929190620001aa565b5080600190805190602001906200006f929190620001aa565b5050506200009262000086620000dc60201b60201c565b620000e460201b60201c565b80600960006101000a81548173ffffffffffffffffffffffffffffffffffffffff021916908373ffffffffffffffffffffffffffffffffffffffff1602179055505050506200055b565b600033905090565b6000600660009054906101000a900473ffffffffffffffffffffffffffffffffffffffff16905081600660006101000a81548173ffffffffffffffffffffffffffffffffffffffff021916908373ffffffffffffffffffffffffffffffffffffffff1602179055508173ffffffffffffffffffffffffffffffffffffffff168173ffffffffffffffffffffffffffffffffffffffff167f8be0079c531659141344cd1fd0a4f28419497f9722a3daafe3b4186f6b6457e060405160405180910390a35050565b828054620001b89062000452565b90600052602060002090601f016020900481019282620001dc576000855562000228565b82601f10620001f757805160ff191683800117855562000228565b8280016001018555821562000228579182015b82811115620002275782518255916020019190600101906200020a565b5b5090506200023791906200023b565b5090565b5b80821115620002565760008160009055506001016200023c565b5090565b6000620002716200026b84620003b2565b62000389565b90508281526020810184848401111562000290576200028f62000521565b5b6200029d8482856200041c565b509392505050565b600081519050620002b68162000541565b92915050565b600082601f830112620002d457620002d36200051c565b5b8151620002e68482602086016200025a565b91505092915050565b6000806000606084860312156200030b576200030a6200052b565b5b600084015167ffffffffffffffff8111156200032c576200032b62000526565b5b6200033a86828701620002bc565b935050602084015167ffffffffffffffff8111156200035e576200035d62000526565b5b6200036c86828701620002bc565b92505060406200037f86828701620002a5565b9150509250925092565b600062000395620003a8565b9050620003a3828262000488565b919050565b6000604051905090565b600067ffffffffffffffff821115620003d057620003cf620004ed565b5b620003db8262000530565b9050602081019050919050565b6000620003f582620003fc565b9050919050565b600073ffffffffffffffffffffffffffffffffffffffff82169050919050565b60005b838110156200043c5780820151818401526020810190506200041f565b838111156200044c576000848401525b50505050565b600060028204905060018216806200046b57607f821691505b60208210811415620004825762000481620004be565b5b50919050565b620004938262000530565b810181811067ffffffffffffffff82111715620004b557620004b4620004ed565b5b80604052505050565b7f4e487b7100000000000000000000000000000000000000000000000000000000600052602260045260246000fd5b7f4e487b7100000000000000000000000000000000000000000000000000000000600052604160045260246000fd5b600080fd5b600080fd5b600080fd5b600080fd5b6000601f19601f8301169050919050565b6200054c81620003e8565b81146200055857600080fd5b50565b613849806200056b6000396000f3fe6080604052600436106101405760003560e01c80638da5cb5b116100b6578063c87b56dd1161006f578063c87b56dd14610461578063d7ba7f2b1461049e578063d85d3d27146104db578063e757223014610504578063e985e9c51461052d578063f2fde38b1461056a57610140565b80638da5cb5b1461035157806395d89b411461037c578063a22cb465146103a7578063b88d4fde146103d0578063c17db046146103f9578063c1e037281461042457610140565b80632d296bf1116101085780632d296bf11461023c57806342842e0e1461026c5780636352211e146102955780636b50e17a146102d257806370a08231146102fd578063715018a61461033a57610140565b806301ffc9a71461014557806306fdde0314610182578063081812fc146101ad578063095ea7b3146101ea57806323b872dd14610213575b600080fd5b34801561015157600080fd5b5061016c600480360381019061016791906125f5565b610593565b6040516101799190612ba2565b60405180910390f35b34801561018e57600080fd5b50610197610675565b6040516101a49190612bbd565b60405180910390f35b3480156101b957600080fd5b506101d460048036038101906101cf9190612698565b610707565b6040516101e19190612af0565b60405180910390f35b3480156101f657600080fd5b50610211600480360381019061020c91906125b5565b61078c565b005b34801561021f57600080fd5b5061023a6004803603810190610235919061249f565b6108a4565b005b61025660048036038101906102519190612698565b610904565b6040516102639190612ba2565b60405180910390f35b34801561027857600080fd5b50610293600480360381019061028e919061249f565b610a31565b005b3480156102a157600080fd5b506102bc60048036038101906102b79190612698565b610a51565b6040516102c99190612af0565b60405180910390f35b3480156102de57600080fd5b506102e7610b03565b6040516102f49190612b80565b60405180910390f35b34801561030957600080fd5b50610324600480360381019061031f9190612432565b610c57565b6040516103319190612e1f565b60405180910390f35b34801561034657600080fd5b5061034f610d0f565b005b34801561035d57600080fd5b50610366610d97565b6040516103739190612af0565b60405180910390f35b34801561038857600080fd5b50610391610dc1565b60405161039e9190612bbd565b60405180910390f35b3480156103b357600080fd5b506103ce60048036038101906103c99190612575565b610e53565b005b3480156103dc57600080fd5b506103f760048036038101906103f291906124f2565b610fd4565b005b34801561040557600080fd5b5061040e611036565b60405161041b9190612b80565b60405180910390f35b34801561043057600080fd5b5061044b60048036038101906104469190612698565b611198565b6040516104589190612bbd565b60405180910390f35b34801561046d57600080fd5b5061048860048036038101906104839190612698565b61123d565b6040516104959190612bbd565b60405180910390f35b3480156104aa57600080fd5b506104c560048036038101906104c09190612432565b6112e4565b6040516104d29190612e1f565b60405180910390f35b3480156104e757600080fd5b5061050260048036038101906104fd919061264f565b611398565b005b34801561051057600080fd5b5061052b60048036038101906105269190612698565b611465565b005b34801561053957600080fd5b50610554600480360381019061054f919061245f565b611544565b6040516105619190612ba2565b60405180910390f35b34801561057657600080fd5b50610591600480360381019061058c9190612432565b6115d8565b005b60007f80ac58cd000000000000000000000000000000000000000000000000000000007bffffffffffffffffffffffffffffffffffffffffffffffffffffffff1916827bffffffffffffffffffffffffffffffffffffffffffffffffffffffff1916148061065e57507f5b5e139f000000000000000000000000000000000000000000000000000000007bffffffffffffffffffffffffffffffffffffffffffffffffffffffff1916827bffffffffffffffffffffffffffffffffffffffffffffffffffffffff1916145b8061066e575061066d826116d0565b5b9050919050565b60606000805461068490613120565b80601f01602080910402602001604051908101604052809291908181526020018280546106b090613120565b80156106fd5780601f106106d2576101008083540402835291602001916106fd565b820191906000526020600020905b8154815290600101906020018083116106e057829003601f168201915b5050505050905090565b60006107128261173a565b610751576040517f08c379a000000000000000000000000000000000000000000000000000000000815260040161074890612d5f565b60405180910390fd5b6004600083815260200190815260200160002060009054906101000a900473ffffffffffffffffffffffffffffffffffffffff169050919050565b600061079782610a51565b90508073ffffffffffffffffffffffffffffffffffffffff168373ffffffffffffffffffffffffffffffffffffffff161415610808576040517f08c379a00000000000000000000000000000000000000000000000000000000081526004016107ff90612ddf565b60405180910390fd5b8073ffffffffffffffffffffffffffffffffffffffff166108276117a6565b73ffffffffffffffffffffffffffffffffffffffff1614806108565750610855816108506117a6565b611544565b5b610895576040517f08c379a000000000000000000000000000000000000000000000000000000000815260040161088c90612cbf565b60405180910390fd5b61089f83836117ae565b505050565b6108b56108af6117a6565b82611867565b6108f4576040517f08c379a00000000000000000000000000000000000000000000000000000000081526004016108eb90612dff565b60405180910390fd5b6108ff838383611945565b505050565b60006706f05b59d3b200003411610950576040517f08c379a000000000000000000000000000000000000000000000000000000000815260040161094790612d3f565b60405180910390fd5b600061095a610d97565b90508073ffffffffffffffffffffffffffffffffffffffff1661097c84610a51565b73ffffffffffffffffffffffffffffffffffffffff16146109d2576040517f08c379a00000000000000000000000000000000000000000000000000000000081526004016109c990612c3f565b60405180910390fd5b6109ed81338560405180602001604052806000815250611ba1565b7fef4fbd7bd7bc80e2acdee2bad2f2466095ba4e0651d8877e5641f1b92c11ccb4836001604051610a1f929190612e71565b60405180910390a16001915050919050565b610a4c83838360405180602001604052806000815250610fd4565b505050565b6000806002600084815260200190815260200160002060009054906101000a900473ffffffffffffffffffffffffffffffffffffffff169050600073ffffffffffffffffffffffffffffffffffffffff168173ffffffffffffffffffffffffffffffffffffffff161415610afa576040517f08c379a0000000000000000000000000000000000000000000000000000000008152600401610af190612cff565b60405180910390fd5b80915050919050565b60606000610b1033610c57565b90506000811415610b6d57600067ffffffffffffffff811115610b3657610b356132b9565b5b604051908082528060200260200182016040528015610b645781602001602082028036833780820191505090505b50915050610c54565b60008167ffffffffffffffff811115610b8957610b886132b9565b5b604051908082528060200260200182016040528015610bb75781602001602082028036833780820191505090505b509050600060075490506000805b82811015610c4b573373ffffffffffffffffffffffffffffffffffffffff16610bed82610a51565b73ffffffffffffffffffffffffffffffffffffffff161415610c385780848381518110610c1d57610c1c61328a565b5b6020026020010181815250508180610c3490613183565b9250505b8080610c4390613183565b915050610bc5565b83955050505050505b90565b60008073ffffffffffffffffffffffffffffffffffffffff168273ffffffffffffffffffffffffffffffffffffffff161415610cc8576040517f08c379a0000000000000000000000000000000000000000000000000000000008152600401610cbf90612cdf565b60405180910390fd5b600360008373ffffffffffffffffffffffffffffffffffffffff1673ffffffffffffffffffffffffffffffffffffffff168152602001908152602001600020549050919050565b610d176117a6565b73ffffffffffffffffffffffffffffffffffffffff16610d35610d97565b73ffffffffffffffffffffffffffffffffffffffff1614610d8b576040517f08c379a0000000000000000000000000000000000000000000000000000000008152600401610d8290612d7f565b60405180910390fd5b610d956000611bfd565b565b6000600660009054906101000a900473ffffffffffffffffffffffffffffffffffffffff16905090565b606060018054610dd090613120565b80601f0160208091040260200160405190810160405280929190818152602001828054610dfc90613120565b8015610e495780601f10610e1e57610100808354040283529160200191610e49565b820191906000526020600020905b815481529060010190602001808311610e2c57829003601f168201915b5050505050905090565b610e5b6117a6565b73ffffffffffffffffffffffffffffffffffffffff168273ffffffffffffffffffffffffffffffffffffffff161415610ec9576040517f08c379a0000000000000000000000000000000000000000000000000000000008152600401610ec090612c7f565b60405180910390fd5b8060056000610ed66117a6565b73ffffffffffffffffffffffffffffffffffffffff1673ffffffffffffffffffffffffffffffffffffffff16815260200190815260200160002060008473ffffffffffffffffffffffffffffffffffffffff1673ffffffffffffffffffffffffffffffffffffffff16815260200190815260200160002060006101000a81548160ff0219169083151502179055508173ffffffffffffffffffffffffffffffffffffffff16610f836117a6565b73ffffffffffffffffffffffffffffffffffffffff167f17307eab39ab6107e8899845ad3d59bd9653f200f220920489ca2b5937696c3183604051610fc89190612ba2565b60405180910390a35050565b610fe5610fdf6117a6565b83611867565b611024576040517f08c379a000000000000000000000000000000000000000000000000000000000815260040161101b90612dff565b60405180910390fd5b61103084848484611ba1565b50505050565b60606000611042610d97565b9050600061104f82610c57565b905060008114156110ad57600067ffffffffffffffff811115611075576110746132b9565b5b6040519080825280602002602001820160405280156110a35781602001602082028036833780820191505090505b5092505050611195565b60008167ffffffffffffffff8111156110c9576110c86132b9565b5b6040519080825280602002602001820160405280156110f75781602001602082028036833780820191505090505b509050600060075490506000805b8281101561118b578573ffffffffffffffffffffffffffffffffffffffff1661112d82610a51565b73ffffffffffffffffffffffffffffffffffffffff161415611178578084838151811061115d5761115c61328a565b5b602002602001018181525050818061117490613183565b9250505b808061118390613183565b915050611105565b8396505050505050505b90565b60606008600083815260200190815260200160002080546111b890613120565b80601f01602080910402602001604051908101604052809291908181526020018280546111e490613120565b80156112315780601f1061120657610100808354040283529160200191611231565b820191906000526020600020905b81548152906001019060200180831161121457829003601f168201915b50505050509050919050565b60606112488261173a565b611287576040517f08c379a000000000000000000000000000000000000000000000000000000000815260040161127e90612dbf565b60405180910390fd5b6000611291611cc3565b905060008151116112b157604051806020016040528060008152506112dc565b806112bb84611cda565b6040516020016112cc929190612acc565b6040516020818303038152906040525b915050919050565b6000600960009054906101000a900473ffffffffffffffffffffffffffffffffffffffff1673ffffffffffffffffffffffffffffffffffffffff166370a08231836040518263ffffffff1660e01b81526004016113419190612af0565b60206040518083038186803b15801561135957600080fd5b505afa15801561136d573d6000803e3d6000fd5b505050506040513d601f19601f8201168201806040525081019061139191906126c5565b9050919050565b6113a06117a6565b73ffffffffffffffffffffffffffffffffffffffff166113be610d97565b73ffffffffffffffffffffffffffffffffffffffff1614611414576040517f08c379a000000000000000000000000000000000000000000000000000000000815260040161140b90612d7f565b60405180910390fd5b80600860006007548152602001908152602001600020908051906020019061143d929190612231565b5061144a33600754611e3b565b6007600081548092919061145d90613183565b919050555050565b600061147082610a51565b9050600960009054906101000a900473ffffffffffffffffffffffffffffffffffffffff1673ffffffffffffffffffffffffffffffffffffffff166340c10f19826103e86040518363ffffffff1660e01b81526004016114d1929190612b57565b600060405180830381600087803b1580156114eb57600080fd5b505af11580156114ff573d6000803e3d6000fd5b505050507f337b9d6dccb3016227e925a2f92f5ec3802253fdc83e687a58b8bd0eef009fc582826103e860405161153893929190612e3a565b60405180910390a15050565b6000600560008473ffffffffffffffffffffffffffffffffffffffff1673ffffffffffffffffffffffffffffffffffffffff16815260200190815260200160002060008373ffffffffffffffffffffffffffffffffffffffff1673ffffffffffffffffffffffffffffffffffffffff16815260200190815260200160002060009054906101000a900460ff16905092915050565b6115e06117a6565b73ffffffffffffffffffffffffffffffffffffffff166115fe610d97565b73ffffffffffffffffffffffffffffffffffffffff1614611654576040517f08c379a000000000000000000000000000000000000000000000000000000000815260040161164b90612d7f565b60405180910390fd5b600073ffffffffffffffffffffffffffffffffffffffff168173ffffffffffffffffffffffffffffffffffffffff1614156116c4576040517f08c379a00000000000000000000000000000000000000000000000000000000081526004016116bb90612bff565b60405180910390fd5b6116cd81611bfd565b50565b60007f01ffc9a7000000000000000000000000000000000000000000000000000000007bffffffffffffffffffffffffffffffffffffffffffffffffffffffff1916827bffffffffffffffffffffffffffffffffffffffffffffffffffffffff1916149050919050565b60008073ffffffffffffffffffffffffffffffffffffffff166002600084815260200190815260200160002060009054906101000a900473ffffffffffffffffffffffffffffffffffffffff1673ffffffffffffffffffffffffffffffffffffffff1614159050919050565b600033905090565b816004600083815260200190815260200160002060006101000a81548173ffffffffffffffffffffffffffffffffffffffff021916908373ffffffffffffffffffffffffffffffffffffffff160217905550808273ffffffffffffffffffffffffffffffffffffffff1661182183610a51565b73ffffffffffffffffffffffffffffffffffffffff167f8c5be1e5ebec7d5bd14f71427d1e84f3dd0314c0f7b2291e5b200ac8c7c3b92560405160405180910390a45050565b60006118728261173a565b6118b1576040517f08c379a00000000000000000000000000000000000000000000000000000000081526004016118a890612c9f565b60405180910390fd5b60006118bc83610a51565b90508073ffffffffffffffffffffffffffffffffffffffff168473ffffffffffffffffffffffffffffffffffffffff16148061192b57508373ffffffffffffffffffffffffffffffffffffffff1661191384610707565b73ffffffffffffffffffffffffffffffffffffffff16145b8061193c575061193b8185611544565b5b91505092915050565b8273ffffffffffffffffffffffffffffffffffffffff1661196582610a51565b73ffffffffffffffffffffffffffffffffffffffff16146119bb576040517f08c379a00000000000000000000000000000000000000000000000000000000081526004016119b290612d9f565b60405180910390fd5b600073ffffffffffffffffffffffffffffffffffffffff168273ffffffffffffffffffffffffffffffffffffffff161415611a2b576040517f08c379a0000000000000000000000000000000000000000000000000000000008152600401611a2290612c5f565b60405180910390fd5b611a36838383611e59565b611a416000826117ae565b6001600360008573ffffffffffffffffffffffffffffffffffffffff1673ffffffffffffffffffffffffffffffffffffffff1681526020019081526020016000206000828254611a919190613024565b925050819055506001600360008473ffffffffffffffffffffffffffffffffffffffff1673ffffffffffffffffffffffffffffffffffffffff1681526020019081526020016000206000828254611ae89190612f9d565b92505081905550816002600083815260200190815260200160002060006101000a81548173ffffffffffffffffffffffffffffffffffffffff021916908373ffffffffffffffffffffffffffffffffffffffff160217905550808273ffffffffffffffffffffffffffffffffffffffff168473ffffffffffffffffffffffffffffffffffffffff167fddf252ad1be2c89b69c2b068fc378daa952ba7f163c4a11628f55a4df523b3ef60405160405180910390a4505050565b611bac848484611945565b611bb884848484611e5e565b611bf7576040517f08c379a0000000000000000000000000000000000000000000000000000000008152600401611bee90612bdf565b60405180910390fd5b50505050565b6000600660009054906101000a900473ffffffffffffffffffffffffffffffffffffffff16905081600660006101000a81548173ffffffffffffffffffffffffffffffffffffffff021916908373ffffffffffffffffffffffffffffffffffffffff1602179055508173ffffffffffffffffffffffffffffffffffffffff168173ffffffffffffffffffffffffffffffffffffffff167f8be0079c531659141344cd1fd0a4f28419497f9722a3daafe3b4186f6b6457e060405160405180910390a35050565b606060405180602001604052806000815250905090565b60606000821415611d22576040518060400160405280600181526020017f30000000000000000000000000000000000000000000000000000000000000008152509050611e36565b600082905060005b60008214611d54578080611d3d90613183565b915050600a82611d4d9190612ff3565b9150611d2a565b60008167ffffffffffffffff811115611d7057611d6f6132b9565b5b6040519080825280601f01601f191660200182016040528015611da25781602001600182028036833780820191505090505b5090505b60008514611e2f57600182611dbb9190613024565b9150600a85611dca91906131cc565b6030611dd69190612f9d565b60f81b818381518110611dec57611deb61328a565b5b60200101907effffffffffffffffffffffffffffffffffffffffffffffffffffffffffffff1916908160001a905350600a85611e289190612ff3565b9450611da6565b8093505050505b919050565b611e55828260405180602001604052806000815250611ff5565b5050565b505050565b6000611e7f8473ffffffffffffffffffffffffffffffffffffffff16612050565b15611fe8578373ffffffffffffffffffffffffffffffffffffffff1663150b7a02611ea86117a6565b8786866040518563ffffffff1660e01b8152600401611eca9493929190612b0b565b602060405180830381600087803b158015611ee457600080fd5b505af1925050508015611f1557506040513d601f19601f82011682018060405250810190611f129190612622565b60015b611f98573d8060008114611f45576040519150601f19603f3d011682016040523d82523d6000602084013e611f4a565b606091505b50600081511415611f90576040517f08c379a0000000000000000000000000000000000000000000000000000000008152600401611f8790612bdf565b60405180910390fd5b805181602001fd5b63150b7a0260e01b7bffffffffffffffffffffffffffffffffffffffffffffffffffffffff1916817bffffffffffffffffffffffffffffffffffffffffffffffffffffffff191614915050611fed565b600190505b949350505050565b611fff8383612063565b61200c6000848484611e5e565b61204b576040517f08c379a000000000000000000000000000000000000000000000000000000000815260040161204290612bdf565b60405180910390fd5b505050565b600080823b905060008111915050919050565b600073ffffffffffffffffffffffffffffffffffffffff168273ffffffffffffffffffffffffffffffffffffffff1614156120d3576040517f08c379a00000000000000000000000000000000000000000000000000000000081526004016120ca90612d1f565b60405180910390fd5b6120dc8161173a565b1561211c576040517f08c379a000000000000000000000000000000000000000000000000000000000815260040161211390612c1f565b60405180910390fd5b61212860008383611e59565b6001600360008473ffffffffffffffffffffffffffffffffffffffff1673ffffffffffffffffffffffffffffffffffffffff16815260200190815260200160002060008282546121789190612f9d565b92505081905550816002600083815260200190815260200160002060006101000a81548173ffffffffffffffffffffffffffffffffffffffff021916908373ffffffffffffffffffffffffffffffffffffffff160217905550808273ffffffffffffffffffffffffffffffffffffffff16600073ffffffffffffffffffffffffffffffffffffffff167fddf252ad1be2c89b69c2b068fc378daa952ba7f163c4a11628f55a4df523b3ef60405160405180910390a45050565b82805461223d90613120565b90600052602060002090601f01602090048101928261225f57600085556122a6565b82601f1061227857805160ff19168380011785556122a6565b828001600101855582156122a6579182015b828111156122a557825182559160200191906001019061228a565b5b5090506122b391906122b7565b5090565b5b808211156122d05760008160009055506001016122b8565b5090565b60006122e76122e284612ebf565b612e9a565b905082815260208101848484011115612303576123026132ed565b5b61230e8482856130de565b509392505050565b600061232961232484612ef0565b612e9a565b905082815260208101848484011115612345576123446132ed565b5b6123508482856130de565b509392505050565b600081359050612367816137b7565b92915050565b60008135905061237c816137ce565b92915050565b600081359050612391816137e5565b92915050565b6000815190506123a6816137e5565b92915050565b600082601f8301126123c1576123c06132e8565b5b81356123d18482602086016122d4565b91505092915050565b600082601f8301126123ef576123ee6132e8565b5b81356123ff848260208601612316565b91505092915050565b600081359050612417816137fc565b92915050565b60008151905061242c816137fc565b92915050565b600060208284031215612448576124476132f7565b5b600061245684828501612358565b91505092915050565b60008060408385031215612476576124756132f7565b5b600061248485828601612358565b925050602061249585828601612358565b9150509250929050565b6000806000606084860312156124b8576124b76132f7565b5b60006124c686828701612358565b93505060206124d786828701612358565b92505060406124e886828701612408565b9150509250925092565b6000806000806080858703121561250c5761250b6132f7565b5b600061251a87828801612358565b945050602061252b87828801612358565b935050604061253c87828801612408565b925050606085013567ffffffffffffffff81111561255d5761255c6132f2565b5b612569878288016123ac565b91505092959194509250565b6000806040838503121561258c5761258b6132f7565b5b600061259a85828601612358565b92505060206125ab8582860161236d565b9150509250929050565b600080604083850312156125cc576125cb6132f7565b5b60006125da85828601612358565b92505060206125eb85828601612408565b9150509250929050565b60006020828403121561260b5761260a6132f7565b5b600061261984828501612382565b91505092915050565b600060208284031215612638576126376132f7565b5b600061264684828501612397565b91505092915050565b600060208284031215612665576126646132f7565b5b600082013567ffffffffffffffff811115612683576126826132f2565b5b61268f848285016123da565b91505092915050565b6000602082840312156126ae576126ad6132f7565b5b60006126bc84828501612408565b91505092915050565b6000602082840312156126db576126da6132f7565b5b60006126e98482850161241d565b91505092915050565b60006126fe8383612aae565b60208301905092915050565b61271381613058565b82525050565b600061272482612f31565b61272e8185612f5f565b935061273983612f21565b8060005b8381101561276a57815161275188826126f2565b975061275c83612f52565b92505060018101905061273d565b5085935050505092915050565b6127808161306a565b82525050565b600061279182612f3c565b61279b8185612f70565b93506127ab8185602086016130ed565b6127b4816132fc565b840191505092915050565b6127c8816130cc565b82525050565b60006127d982612f47565b6127e38185612f81565b93506127f38185602086016130ed565b6127fc816132fc565b840191505092915050565b600061281282612f47565b61281c8185612f92565b935061282c8185602086016130ed565b80840191505092915050565b6000612845603283612f81565b91506128508261330d565b604082019050919050565b6000612868602683612f81565b91506128738261335c565b604082019050919050565b600061288b601c83612f81565b9150612896826133ab565b602082019050919050565b60006128ae601c83612f81565b91506128b9826133d4565b602082019050919050565b60006128d1602483612f81565b91506128dc826133fd565b604082019050919050565b60006128f4601983612f81565b91506128ff8261344c565b602082019050919050565b6000612917602c83612f81565b915061292282613475565b604082019050919050565b600061293a603883612f81565b9150612945826134c4565b604082019050919050565b600061295d602a83612f81565b915061296882613513565b604082019050919050565b6000612980602983612f81565b915061298b82613562565b604082019050919050565b60006129a3602083612f81565b91506129ae826135b1565b602082019050919050565b60006129c6601683612f81565b91506129d1826135da565b602082019050919050565b60006129e9602c83612f81565b91506129f482613603565b604082019050919050565b6000612a0c602083612f81565b9150612a1782613652565b602082019050919050565b6000612a2f602983612f81565b9150612a3a8261367b565b604082019050919050565b6000612a52602f83612f81565b9150612a5d826136ca565b604082019050919050565b6000612a75602183612f81565b9150612a8082613719565b604082019050919050565b6000612a98603183612f81565b9150612aa382613768565b604082019050919050565b612ab7816130c2565b82525050565b612ac6816130c2565b82525050565b6000612ad88285612807565b9150612ae48284612807565b91508190509392505050565b6000602082019050612b05600083018461270a565b92915050565b6000608082019050612b20600083018761270a565b612b2d602083018661270a565b612b3a6040830185612abd565b8181036060830152612b4c8184612786565b905095945050505050565b6000604082019050612b6c600083018561270a565b612b7960208301846127bf565b9392505050565b60006020820190508181036000830152612b9a8184612719565b905092915050565b6000602082019050612bb76000830184612777565b92915050565b60006020820190508181036000830152612bd781846127ce565b905092915050565b60006020820190508181036000830152612bf881612838565b9050919050565b60006020820190508181036000830152612c188161285b565b9050919050565b60006020820190508181036000830152612c388161287e565b9050919050565b60006020820190508181036000830152612c58816128a1565b9050919050565b60006020820190508181036000830152612c78816128c4565b9050919050565b60006020820190508181036000830152612c98816128e7565b9050919050565b60006020820190508181036000830152612cb88161290a565b9050919050565b60006020820190508181036000830152612cd88161292d565b9050919050565b60006020820190508181036000830152612cf881612950565b9050919050565b60006020820190508181036000830152612d1881612973565b9050919050565b60006020820190508181036000830152612d3881612996565b9050919050565b60006020820190508181036000830152612d58816129b9565b9050919050565b60006020820190508181036000830152612d78816129dc565b9050919050565b60006020820190508181036000830152612d98816129ff565b9050919050565b60006020820190508181036000830152612db881612a22565b9050919050565b60006020820190508181036000830152612dd881612a45565b9050919050565b60006020820190508181036000830152612df881612a68565b9050919050565b60006020820190508181036000830152612e1881612a8b565b9050919050565b6000602082019050612e346000830184612abd565b92915050565b6000606082019050612e4f6000830186612abd565b612e5c602083018561270a565b612e6960408301846127bf565b949350505050565b6000604082019050612e866000830185612abd565b612e936020830184612777565b9392505050565b6000612ea4612eb5565b9050612eb08282613152565b919050565b6000604051905090565b600067ffffffffffffffff821115612eda57612ed96132b9565b5b612ee3826132fc565b9050602081019050919050565b600067ffffffffffffffff821115612f0b57612f0a6132b9565b5b612f14826132fc565b9050602081019050919050565b6000819050602082019050919050565b600081519050919050565b600081519050919050565b600081519050919050565b6000602082019050919050565b600082825260208201905092915050565b600082825260208201905092915050565b600082825260208201905092915050565b600081905092915050565b6000612fa8826130c2565b9150612fb3836130c2565b9250827fffffffffffffffffffffffffffffffffffffffffffffffffffffffffffffffff03821115612fe857612fe76131fd565b5b828201905092915050565b6000612ffe826130c2565b9150613009836130c2565b9250826130195761301861322c565b5b828204905092915050565b600061302f826130c2565b915061303a836130c2565b92508282101561304d5761304c6131fd565b5b828203905092915050565b6000613063826130a2565b9050919050565b60008115159050919050565b60007fffffffff0000000000000000000000000000000000000000000000000000000082169050919050565b600073ffffffffffffffffffffffffffffffffffffffff82169050919050565b6000819050919050565b60006130d7826130c2565b9050919050565b82818337600083830152505050565b60005b8381101561310b5780820151818401526020810190506130f0565b8381111561311a576000848401525b50505050565b6000600282049050600182168061313857607f821691505b6020821081141561314c5761314b61325b565b5b50919050565b61315b826132fc565b810181811067ffffffffffffffff8211171561317a576131796132b9565b5b80604052505050565b600061318e826130c2565b91507fffffffffffffffffffffffffffffffffffffffffffffffffffffffffffffffff8214156131c1576131c06131fd565b5b600182019050919050565b60006131d7826130c2565b91506131e2836130c2565b9250826131f2576131f161322c565b5b828206905092915050565b7f4e487b7100000000000000000000000000000000000000000000000000000000600052601160045260246000fd5b7f4e487b7100000000000000000000000000000000000000000000000000000000600052601260045260246000fd5b7f4e487b7100000000000000000000000000000000000000000000000000000000600052602260045260246000fd5b7f4e487b7100000000000000000000000000000000000000000000000000000000600052603260045260246000fd5b7f4e487b7100000000000000000000000000000000000000000000000000000000600052604160045260246000fd5b600080fd5b600080fd5b600080fd5b600080fd5b6000601f19601f8301169050919050565b7f4552433732313a207472616e7366657220746f206e6f6e20455243373231526560008201527f63656976657220696d706c656d656e7465720000000000000000000000000000602082015250565b7f4f776e61626c653a206e6577206f776e657220697320746865207a65726f206160008201527f6464726573730000000000000000000000000000000000000000000000000000602082015250565b7f4552433732313a20746f6b656e20616c7265616479206d696e74656400000000600082015250565b7f5468697320746f6b656e2062656c6f6e6720746f20736f6d656f6e6500000000600082015250565b7f4552433732313a207472616e7366657220746f20746865207a65726f2061646460008201527f7265737300000000000000000000000000000000000000000000000000000000602082015250565b7f4552433732313a20617070726f766520746f2063616c6c657200000000000000600082015250565b7f4552433732313a206f70657261746f7220717565727920666f72206e6f6e657860008201527f697374656e7420746f6b656e0000000000000000000000000000000000000000602082015250565b7f4552433732313a20617070726f76652063616c6c6572206973206e6f74206f7760008201527f6e6572206e6f7220617070726f76656420666f7220616c6c0000000000000000602082015250565b7f4552433732313a2062616c616e636520717565727920666f7220746865207a6560008201527f726f206164647265737300000000000000000000000000000000000000000000602082015250565b7f4552433732313a206f776e657220717565727920666f72206e6f6e657869737460008201527f656e7420746f6b656e0000000000000000000000000000000000000000000000602082015250565b7f4552433732313a206d696e7420746f20746865207a65726f2061646472657373600082015250565b7f506c656173652073656e64206d6f726520657468657200000000000000000000600082015250565b7f4552433732313a20617070726f76656420717565727920666f72206e6f6e657860008201527f697374656e7420746f6b656e0000000000000000000000000000000000000000602082015250565b7f4f776e61626c653a2063616c6c6572206973206e6f7420746865206f776e6572600082015250565b7f4552433732313a207472616e73666572206f6620746f6b656e2074686174206960008201527f73206e6f74206f776e0000000000000000000000000000000000000000000000602082015250565b7f4552433732314d657461646174613a2055524920717565727920666f72206e6f60008201527f6e6578697374656e7420746f6b656e0000000000000000000000000000000000602082015250565b7f4552433732313a20617070726f76616c20746f2063757272656e74206f776e6560008201527f7200000000000000000000000000000000000000000000000000000000000000602082015250565b7f4552433732313a207472616e736665722063616c6c6572206973206e6f74206f60008201527f776e6572206e6f7220617070726f766564000000000000000000000000000000602082015250565b6137c081613058565b81146137cb57600080fd5b50565b6137d78161306a565b81146137e257600080fd5b50565b6137ee81613076565b81146137f957600080fd5b50565b613805816130c2565b811461381057600080fd5b5056fea26469706673582212207f316bd97db9a9b7850dc3984dfcf374300041c27e59a109c20ee4fd194e969264736f6c63430008070033",
  "immutableReferences": {},
  "source": "// SPDX-License-Identifier: MIT\r\npragma solidity 0.8.7;\r\n\r\nimport \"../node_modules/@openzeppelin/contracts/token/ERC721/ERC721.sol\";\r\nimport \"../node_modules/@openzeppelin/contracts/access/Ownable.sol\";\r\nimport \"./TokenERC20.sol\";\r\n\r\ncontract TokenERC721 is ERC721, Ownable {\r\n\r\n    uint256 nextId = 0;\r\n\r\n    mapping (uint => string) private _tokenUri;\r\n\r\n    event BuyToken(uint tokenId, bool success);\r\n    event GetPrice(uint tokenId, address owner, uint price);\r\n\r\n    TokenERC20 private erc20Token; \r\n\r\n    constructor(string memory _name, string memory _symbol, address _erc20Token) ERC721(_name, _symbol) {\r\n        erc20Token = TokenERC20(_erc20Token);\r\n    }\r\n\r\n    function getTokenDetails(uint256 tokenId) public view returns(string memory) {\r\n        return _tokenUri[tokenId];\r\n    }\r\n\r\n    function mint(string memory uri) public onlyOwner {\r\n        _tokenUri[nextId] = uri;\r\n        _safeMint(msg.sender, nextId);\r\n        nextId++;\r\n    }\r\n\r\n    function earnErc20(address reciever ,uint amount) private {\r\n        erc20Token.mint(reciever, amount);\r\n    }\r\n\r\n    function getAllTokenForUser() public view returns(uint256[] memory) {\r\n        uint256 tokenCount = balanceOf(msg.sender);\r\n        if (tokenCount == 0) {\r\n            return new uint256[](0);\r\n        } else {\r\n            uint[] memory result = new uint256[](tokenCount);\r\n            uint256 total = nextId;\r\n            uint256 resultIndex = 0;\r\n            uint256 i;\r\n            for (i = 0; i < total; i++) {\r\n                if (ownerOf(i) == msg.sender) {\r\n                    result[resultIndex] = i;\r\n                    resultIndex++;\r\n                }\r\n            }\r\n            return result;\r\n        }\r\n    }\r\n\r\n    function getAllNotOwnToken() public view returns(uint256[] memory) {\r\n        address owner = owner();\r\n        uint256 tokenCount = balanceOf(owner);\r\n        if (tokenCount == 0) {\r\n            return new uint256[](0);\r\n        } else {\r\n            uint[] memory result = new uint256[](tokenCount);\r\n            uint256 total = nextId;\r\n            uint256 resultIndex = 0;\r\n            uint256 i;\r\n            for (i = 0; i < total; i++) {\r\n                if (ownerOf(i) == owner) {\r\n                    result[resultIndex] = i;\r\n                    resultIndex++;\r\n                }\r\n            }\r\n            return result;\r\n        }\r\n    }\r\n\r\n    function buyToken(uint tokenId) public payable returns (bool) {\r\n        require(msg.value > 0.5 ether, \"Please send more ether\");\r\n        address owner = owner();\r\n        require(ownerOf(tokenId) == owner, \"This token belong to someone\");\r\n        _safeTransfer(owner, msg.sender, tokenId, \"\");\r\n        emit BuyToken(tokenId, true);\r\n        return true;\r\n    }\r\n\r\n    function getBalanceOferc20(address account) public view returns (uint) {\r\n        return erc20Token.balanceOf(account);\r\n    }\r\n\r\n    function getPrice(uint tokenId) public {\r\n        address owner = ownerOf(tokenId);\r\n        erc20Token.mint(owner, 1000);\r\n        emit GetPrice(tokenId, owner, 1000);\r\n    }\r\n}",
  "sourcePath": "C:\\Users\\DELL\\OneDrive\\Desktop\\nft-quickstart\\contracts\\TokenERC721.sol",
  "compiler": {
    "name": "solc",
    "version": "0.8.7+commit.e28d00a7.Emscripten.clang"
  },
  "schemaVersion": "3.4.3",
  "updatedAt": "2021-09-15T13:22:14.203Z",
  "networkType": "ethereum",
  "devdoc": {
    "kind": "dev",
    "methods": {
      "approve(address,uint256)": {
        "details": "See {IERC721-approve}."
      },
      "balanceOf(address)": {
        "details": "See {IERC721-balanceOf}."
      },
      "getApproved(uint256)": {
        "details": "See {IERC721-getApproved}."
      },
      "isApprovedForAll(address,address)": {
        "details": "See {IERC721-isApprovedForAll}."
      },
      "name()": {
        "details": "See {IERC721Metadata-name}."
      },
      "owner()": {
        "details": "Returns the address of the current owner."
      },
      "ownerOf(uint256)": {
        "details": "See {IERC721-ownerOf}."
      },
      "renounceOwnership()": {
        "details": "Leaves the contract without owner. It will not be possible to call `onlyOwner` functions anymore. Can only be called by the current owner. NOTE: Renouncing ownership will leave the contract without an owner, thereby removing any functionality that is only available to the owner."
      },
      "safeTransferFrom(address,address,uint256)": {
        "details": "See {IERC721-safeTransferFrom}."
      },
      "safeTransferFrom(address,address,uint256,bytes)": {
        "details": "See {IERC721-safeTransferFrom}."
      },
      "setApprovalForAll(address,bool)": {
        "details": "See {IERC721-setApprovalForAll}."
      },
      "supportsInterface(bytes4)": {
        "details": "See {IERC165-supportsInterface}."
      },
      "symbol()": {
        "details": "See {IERC721Metadata-symbol}."
      },
      "tokenURI(uint256)": {
        "details": "See {IERC721Metadata-tokenURI}."
      },
      "transferFrom(address,address,uint256)": {
        "details": "See {IERC721-transferFrom}."
      },
      "transferOwnership(address)": {
        "details": "Transfers ownership of the contract to a new account (`newOwner`). Can only be called by the current owner."
      }
    },
    "version": 1
  },
  "userdoc": {
    "kind": "user",
    "methods": {},
    "version": 1
  }
}