{
  "contractName": "TokenERC721",
  "abi": [
    {
      "inputs": [
        {
          "internalType": "string",
          "name": "_name",
          "type": "string"
        },
        {
          "internalType": "string",
          "name": "_symbol",
          "type": "string"
        },
        {
          "internalType": "address",
          "name": "_erc20Token",
          "type": "address"
        }
      ],
      "stateMutability": "nonpayable",
      "type": "constructor"
    },
    {
      "anonymous": false,
      "inputs": [
        {
          "indexed": true,
          "internalType": "address",
          "name": "owner",
          "type": "address"
        },
        {
          "indexed": true,
          "internalType": "address",
          "name": "approved",
          "type": "address"
        },
        {
          "indexed": true,
          "internalType": "uint256",
          "name": "tokenId",
          "type": "uint256"
        }
      ],
      "name": "Approval",
      "type": "event"
    },
    {
      "anonymous": false,
      "inputs": [
        {
          "indexed": true,
          "internalType": "address",
          "name": "owner",
          "type": "address"
        },
        {
          "indexed": true,
          "internalType": "address",
          "name": "operator",
          "type": "address"
        },
        {
          "indexed": false,
          "internalType": "bool",
          "name": "approved",
          "type": "bool"
        }
      ],
      "name": "ApprovalForAll",
      "type": "event"
    },
    {
      "anonymous": false,
      "inputs": [
        {
          "indexed": false,
          "internalType": "uint256",
          "name": "tokenId",
          "type": "uint256"
        },
        {
          "indexed": false,
          "internalType": "bool",
          "name": "success",
          "type": "bool"
        }
      ],
      "name": "BuyToken",
      "type": "event"
    },
    {
      "anonymous": false,
      "inputs": [
        {
          "indexed": true,
          "internalType": "address",
          "name": "previousOwner",
          "type": "address"
        },
        {
          "indexed": true,
          "internalType": "address",
          "name": "newOwner",
          "type": "address"
        }
      ],
      "name": "OwnershipTransferred",
      "type": "event"
    },
    {
      "anonymous": false,
      "inputs": [
        {
          "indexed": true,
          "internalType": "address",
          "name": "from",
          "type": "address"
        },
        {
          "indexed": true,
          "internalType": "address",
          "name": "to",
          "type": "address"
        },
        {
          "indexed": true,
          "internalType": "uint256",
          "name": "tokenId",
          "type": "uint256"
        }
      ],
      "name": "Transfer",
      "type": "event"
    },
    {
      "inputs": [
        {
          "internalType": "address",
          "name": "to",
          "type": "address"
        },
        {
          "internalType": "uint256",
          "name": "tokenId",
          "type": "uint256"
        }
      ],
      "name": "approve",
      "outputs": [],
      "stateMutability": "nonpayable",
      "type": "function"
    },
    {
      "inputs": [
        {
          "internalType": "address",
          "name": "owner",
          "type": "address"
        }
      ],
      "name": "balanceOf",
      "outputs": [
        {
          "internalType": "uint256",
          "name": "",
          "type": "uint256"
        }
      ],
      "stateMutability": "view",
      "type": "function",
      "constant": true
    },
    {
      "inputs": [
        {
          "internalType": "uint256",
          "name": "tokenId",
          "type": "uint256"
        }
      ],
      "name": "getApproved",
      "outputs": [
        {
          "internalType": "address",
          "name": "",
          "type": "address"
        }
      ],
      "stateMutability": "view",
      "type": "function",
      "constant": true
    },
    {
      "inputs": [
        {
          "internalType": "address",
          "name": "owner",
          "type": "address"
        },
        {
          "internalType": "address",
          "name": "operator",
          "type": "address"
        }
      ],
      "name": "isApprovedForAll",
      "outputs": [
        {
          "internalType": "bool",
          "name": "",
          "type": "bool"
        }
      ],
      "stateMutability": "view",
      "type": "function",
      "constant": true
    },
    {
      "inputs": [],
      "name": "name",
      "outputs": [
        {
          "internalType": "string",
          "name": "",
          "type": "string"
        }
      ],
      "stateMutability": "view",
      "type": "function",
      "constant": true
    },
    {
      "inputs": [],
      "name": "owner",
      "outputs": [
        {
          "internalType": "address",
          "name": "",
          "type": "address"
        }
      ],
      "stateMutability": "view",
      "type": "function",
      "constant": true
    },
    {
      "inputs": [
        {
          "internalType": "uint256",
          "name": "tokenId",
          "type": "uint256"
        }
      ],
      "name": "ownerOf",
      "outputs": [
        {
          "internalType": "address",
          "name": "",
          "type": "address"
        }
      ],
      "stateMutability": "view",
      "type": "function",
      "constant": true
    },
    {
      "inputs": [],
      "name": "renounceOwnership",
      "outputs": [],
      "stateMutability": "nonpayable",
      "type": "function"
    },
    {
      "inputs": [
        {
          "internalType": "address",
          "name": "from",
          "type": "address"
        },
        {
          "internalType": "address",
          "name": "to",
          "type": "address"
        },
        {
          "internalType": "uint256",
          "name": "tokenId",
          "type": "uint256"
        }
      ],
      "name": "safeTransferFrom",
      "outputs": [],
      "stateMutability": "nonpayable",
      "type": "function"
    },
    {
      "inputs": [
        {
          "internalType": "address",
          "name": "from",
          "type": "address"
        },
        {
          "internalType": "address",
          "name": "to",
          "type": "address"
        },
        {
          "internalType": "uint256",
          "name": "tokenId",
          "type": "uint256"
        },
        {
          "internalType": "bytes",
          "name": "_data",
          "type": "bytes"
        }
      ],
      "name": "safeTransferFrom",
      "outputs": [],
      "stateMutability": "nonpayable",
      "type": "function"
    },
    {
      "inputs": [
        {
          "internalType": "address",
          "name": "operator",
          "type": "address"
        },
        {
          "internalType": "bool",
          "name": "approved",
          "type": "bool"
        }
      ],
      "name": "setApprovalForAll",
      "outputs": [],
      "stateMutability": "nonpayable",
      "type": "function"
    },
    {
      "inputs": [
        {
          "internalType": "bytes4",
          "name": "interfaceId",
          "type": "bytes4"
        }
      ],
      "name": "supportsInterface",
      "outputs": [
        {
          "internalType": "bool",
          "name": "",
          "type": "bool"
        }
      ],
      "stateMutability": "view",
      "type": "function",
      "constant": true
    },
    {
      "inputs": [],
      "name": "symbol",
      "outputs": [
        {
          "internalType": "string",
          "name": "",
          "type": "string"
        }
      ],
      "stateMutability": "view",
      "type": "function",
      "constant": true
    },
    {
      "inputs": [
        {
          "internalType": "uint256",
          "name": "tokenId",
          "type": "uint256"
        }
      ],
      "name": "tokenURI",
      "outputs": [
        {
          "internalType": "string",
          "name": "",
          "type": "string"
        }
      ],
      "stateMutability": "view",
      "type": "function",
      "constant": true
    },
    {
      "inputs": [
        {
          "internalType": "address",
          "name": "from",
          "type": "address"
        },
        {
          "internalType": "address",
          "name": "to",
          "type": "address"
        },
        {
          "internalType": "uint256",
          "name": "tokenId",
          "type": "uint256"
        }
      ],
      "name": "transferFrom",
      "outputs": [],
      "stateMutability": "nonpayable",
      "type": "function"
    },
    {
      "inputs": [
        {
          "internalType": "address",
          "name": "newOwner",
          "type": "address"
        }
      ],
      "name": "transferOwnership",
      "outputs": [],
      "stateMutability": "nonpayable",
      "type": "function"
    },
    {
      "inputs": [
        {
          "internalType": "uint256",
          "name": "tokenId",
          "type": "uint256"
        }
      ],
      "name": "getTokenDetails",
      "outputs": [
        {
          "internalType": "string",
          "name": "",
          "type": "string"
        }
      ],
      "stateMutability": "view",
      "type": "function",
      "constant": true
    },
    {
      "inputs": [
        {
          "internalType": "string",
          "name": "uri",
          "type": "string"
        }
      ],
      "name": "mint",
      "outputs": [],
      "stateMutability": "nonpayable",
      "type": "function"
    },
    {
      "inputs": [],
      "name": "getAllTokenForUser",
      "outputs": [
        {
          "internalType": "uint256[]",
          "name": "",
          "type": "uint256[]"
        }
      ],
      "stateMutability": "view",
      "type": "function",
      "constant": true
    },
    {
      "inputs": [],
      "name": "getAllNotOwnToken",
      "outputs": [
        {
          "internalType": "uint256[]",
          "name": "",
          "type": "uint256[]"
        }
      ],
      "stateMutability": "view",
      "type": "function",
      "constant": true
    },
    {
      "inputs": [
        {
          "internalType": "uint256",
          "name": "tokenId",
          "type": "uint256"
        }
      ],
      "name": "buyToken",
      "outputs": [
        {
          "internalType": "bool",
          "name": "",
          "type": "bool"
        }
      ],
      "stateMutability": "payable",
      "type": "function",
      "payable": true
    }
  ],
  "bytecode": "0x608060405260006007553480156200001657600080fd5b5060405162003ae238038062003ae283398181016040528101906200003c9190620002ef565b8282816000908051906020019062000056929190620001aa565b5080600190805190602001906200006f929190620001aa565b5050506200009262000086620000dc60201b60201c565b620000e460201b60201c565b80600960006101000a81548173ffffffffffffffffffffffffffffffffffffffff021916908373ffffffffffffffffffffffffffffffffffffffff1602179055505050506200055b565b600033905090565b6000600660009054906101000a900473ffffffffffffffffffffffffffffffffffffffff16905081600660006101000a81548173ffffffffffffffffffffffffffffffffffffffff021916908373ffffffffffffffffffffffffffffffffffffffff1602179055508173ffffffffffffffffffffffffffffffffffffffff168173ffffffffffffffffffffffffffffffffffffffff167f8be0079c531659141344cd1fd0a4f28419497f9722a3daafe3b4186f6b6457e060405160405180910390a35050565b828054620001b89062000452565b90600052602060002090601f016020900481019282620001dc576000855562000228565b82601f10620001f757805160ff191683800117855562000228565b8280016001018555821562000228579182015b82811115620002275782518255916020019190600101906200020a565b5b5090506200023791906200023b565b5090565b5b80821115620002565760008160009055506001016200023c565b5090565b6000620002716200026b84620003b2565b62000389565b90508281526020810184848401111562000290576200028f62000521565b5b6200029d8482856200041c565b509392505050565b600081519050620002b68162000541565b92915050565b600082601f830112620002d457620002d36200051c565b5b8151620002e68482602086016200025a565b91505092915050565b6000806000606084860312156200030b576200030a6200052b565b5b600084015167ffffffffffffffff8111156200032c576200032b62000526565b5b6200033a86828701620002bc565b935050602084015167ffffffffffffffff8111156200035e576200035d62000526565b5b6200036c86828701620002bc565b92505060406200037f86828701620002a5565b9150509250925092565b600062000395620003a8565b9050620003a3828262000488565b919050565b6000604051905090565b600067ffffffffffffffff821115620003d057620003cf620004ed565b5b620003db8262000530565b9050602081019050919050565b6000620003f582620003fc565b9050919050565b600073ffffffffffffffffffffffffffffffffffffffff82169050919050565b60005b838110156200043c5780820151818401526020810190506200041f565b838111156200044c576000848401525b50505050565b600060028204905060018216806200046b57607f821691505b60208210811415620004825762000481620004be565b5b50919050565b620004938262000530565b810181811067ffffffffffffffff82111715620004b557620004b4620004ed565b5b80604052505050565b7f4e487b7100000000000000000000000000000000000000000000000000000000600052602260045260246000fd5b7f4e487b7100000000000000000000000000000000000000000000000000000000600052604160045260246000fd5b600080fd5b600080fd5b600080fd5b600080fd5b6000601f19601f8301169050919050565b6200054c81620003e8565b81146200055857600080fd5b50565b613577806200056b6000396000f3fe60806040526004361061012a5760003560e01c8063715018a6116100ab578063c17db0461161006f578063c17db046146103e3578063c1e037281461040e578063c87b56dd1461044b578063d85d3d2714610488578063e985e9c5146104b1578063f2fde38b146104ee5761012a565b8063715018a6146103245780638da5cb5b1461033b57806395d89b4114610366578063a22cb46514610391578063b88d4fde146103ba5761012a565b80632d296bf1116100f25780632d296bf11461022657806342842e0e146102565780636352211e1461027f5780636b50e17a146102bc57806370a08231146102e75761012a565b806301ffc9a71461012f57806306fdde031461016c578063081812fc14610197578063095ea7b3146101d457806323b872dd146101fd575b600080fd5b34801561013b57600080fd5b50610156600480360381019061015191906123d1565b610517565b6040516101639190612919565b60405180910390f35b34801561017857600080fd5b506101816105f9565b60405161018e9190612934565b60405180910390f35b3480156101a357600080fd5b506101be60048036038101906101b99190612474565b61068b565b6040516101cb9190612890565b60405180910390f35b3480156101e057600080fd5b506101fb60048036038101906101f69190612391565b610710565b005b34801561020957600080fd5b50610224600480360381019061021f919061227b565b610828565b005b610240600480360381019061023b9190612474565b610888565b60405161024d9190612919565b60405180910390f35b34801561026257600080fd5b5061027d6004803603810190610278919061227b565b6109b5565b005b34801561028b57600080fd5b506102a660048036038101906102a19190612474565b6109d5565b6040516102b39190612890565b60405180910390f35b3480156102c857600080fd5b506102d1610a87565b6040516102de91906128f7565b60405180910390f35b3480156102f357600080fd5b5061030e6004803603810190610309919061220e565b610bdb565b60405161031b9190612b96565b60405180910390f35b34801561033057600080fd5b50610339610c93565b005b34801561034757600080fd5b50610350610d1b565b60405161035d9190612890565b60405180910390f35b34801561037257600080fd5b5061037b610d45565b6040516103889190612934565b60405180910390f35b34801561039d57600080fd5b506103b860048036038101906103b39190612351565b610dd7565b005b3480156103c657600080fd5b506103e160048036038101906103dc91906122ce565b610f58565b005b3480156103ef57600080fd5b506103f8610fba565b60405161040591906128f7565b60405180910390f35b34801561041a57600080fd5b5061043560048036038101906104309190612474565b61111c565b6040516104429190612934565b60405180910390f35b34801561045757600080fd5b50610472600480360381019061046d9190612474565b6111c1565b60405161047f9190612934565b60405180910390f35b34801561049457600080fd5b506104af60048036038101906104aa919061242b565b611268565b005b3480156104bd57600080fd5b506104d860048036038101906104d3919061223b565b611335565b6040516104e59190612919565b60405180910390f35b3480156104fa57600080fd5b506105156004803603810190610510919061220e565b6113c9565b005b60007f80ac58cd000000000000000000000000000000000000000000000000000000007bffffffffffffffffffffffffffffffffffffffffffffffffffffffff1916827bffffffffffffffffffffffffffffffffffffffffffffffffffffffff191614806105e257507f5b5e139f000000000000000000000000000000000000000000000000000000007bffffffffffffffffffffffffffffffffffffffffffffffffffffffff1916827bffffffffffffffffffffffffffffffffffffffffffffffffffffffff1916145b806105f257506105f1826114c1565b5b9050919050565b60606000805461060890612e4e565b80601f016020809104026020016040519081016040528092919081815260200182805461063490612e4e565b80156106815780601f1061065657610100808354040283529160200191610681565b820191906000526020600020905b81548152906001019060200180831161066457829003601f168201915b5050505050905090565b60006106968261152b565b6106d5576040517f08c379a00000000000000000000000000000000000000000000000000000000081526004016106cc90612ad6565b60405180910390fd5b6004600083815260200190815260200160002060009054906101000a900473ffffffffffffffffffffffffffffffffffffffff169050919050565b600061071b826109d5565b90508073ffffffffffffffffffffffffffffffffffffffff168373ffffffffffffffffffffffffffffffffffffffff16141561078c576040517f08c379a000000000000000000000000000000000000000000000000000000000815260040161078390612b56565b60405180910390fd5b8073ffffffffffffffffffffffffffffffffffffffff166107ab611597565b73ffffffffffffffffffffffffffffffffffffffff1614806107da57506107d9816107d4611597565b611335565b5b610819576040517f08c379a000000000000000000000000000000000000000000000000000000000815260040161081090612a36565b60405180910390fd5b610823838361159f565b505050565b610839610833611597565b82611658565b610878576040517f08c379a000000000000000000000000000000000000000000000000000000000815260040161086f90612b76565b60405180910390fd5b610883838383611736565b505050565b60006706f05b59d3b2000034116108d4576040517f08c379a00000000000000000000000000000000000000000000000000000000081526004016108cb90612ab6565b60405180910390fd5b60006108de610d1b565b90508073ffffffffffffffffffffffffffffffffffffffff16610900846109d5565b73ffffffffffffffffffffffffffffffffffffffff1614610956576040517f08c379a000000000000000000000000000000000000000000000000000000000815260040161094d906129b6565b60405180910390fd5b61097181338560405180602001604052806000815250611992565b7fef4fbd7bd7bc80e2acdee2bad2f2466095ba4e0651d8877e5641f1b92c11ccb48360016040516109a3929190612bb1565b60405180910390a16001915050919050565b6109d083838360405180602001604052806000815250610f58565b505050565b6000806002600084815260200190815260200160002060009054906101000a900473ffffffffffffffffffffffffffffffffffffffff169050600073ffffffffffffffffffffffffffffffffffffffff168173ffffffffffffffffffffffffffffffffffffffff161415610a7e576040517f08c379a0000000000000000000000000000000000000000000000000000000008152600401610a7590612a76565b60405180910390fd5b80915050919050565b60606000610a9433610bdb565b90506000811415610af157600067ffffffffffffffff811115610aba57610ab9612fe7565b5b604051908082528060200260200182016040528015610ae85781602001602082028036833780820191505090505b50915050610bd8565b60008167ffffffffffffffff811115610b0d57610b0c612fe7565b5b604051908082528060200260200182016040528015610b3b5781602001602082028036833780820191505090505b509050600060075490506000805b82811015610bcf573373ffffffffffffffffffffffffffffffffffffffff16610b71826109d5565b73ffffffffffffffffffffffffffffffffffffffff161415610bbc5780848381518110610ba157610ba0612fb8565b5b6020026020010181815250508180610bb890612eb1565b9250505b8080610bc790612eb1565b915050610b49565b83955050505050505b90565b60008073ffffffffffffffffffffffffffffffffffffffff168273ffffffffffffffffffffffffffffffffffffffff161415610c4c576040517f08c379a0000000000000000000000000000000000000000000000000000000008152600401610c4390612a56565b60405180910390fd5b600360008373ffffffffffffffffffffffffffffffffffffffff1673ffffffffffffffffffffffffffffffffffffffff168152602001908152602001600020549050919050565b610c9b611597565b73ffffffffffffffffffffffffffffffffffffffff16610cb9610d1b565b73ffffffffffffffffffffffffffffffffffffffff1614610d0f576040517f08c379a0000000000000000000000000000000000000000000000000000000008152600401610d0690612af6565b60405180910390fd5b610d1960006119ee565b565b6000600660009054906101000a900473ffffffffffffffffffffffffffffffffffffffff16905090565b606060018054610d5490612e4e565b80601f0160208091040260200160405190810160405280929190818152602001828054610d8090612e4e565b8015610dcd5780601f10610da257610100808354040283529160200191610dcd565b820191906000526020600020905b815481529060010190602001808311610db057829003601f168201915b5050505050905090565b610ddf611597565b73ffffffffffffffffffffffffffffffffffffffff168273ffffffffffffffffffffffffffffffffffffffff161415610e4d576040517f08c379a0000000000000000000000000000000000000000000000000000000008152600401610e44906129f6565b60405180910390fd5b8060056000610e5a611597565b73ffffffffffffffffffffffffffffffffffffffff1673ffffffffffffffffffffffffffffffffffffffff16815260200190815260200160002060008473ffffffffffffffffffffffffffffffffffffffff1673ffffffffffffffffffffffffffffffffffffffff16815260200190815260200160002060006101000a81548160ff0219169083151502179055508173ffffffffffffffffffffffffffffffffffffffff16610f07611597565b73ffffffffffffffffffffffffffffffffffffffff167f17307eab39ab6107e8899845ad3d59bd9653f200f220920489ca2b5937696c3183604051610f4c9190612919565b60405180910390a35050565b610f69610f63611597565b83611658565b610fa8576040517f08c379a0000000000000000000000000000000000000000000000000000000008152600401610f9f90612b76565b60405180910390fd5b610fb484848484611992565b50505050565b60606000610fc6610d1b565b90506000610fd382610bdb565b9050600081141561103157600067ffffffffffffffff811115610ff957610ff8612fe7565b5b6040519080825280602002602001820160405280156110275781602001602082028036833780820191505090505b5092505050611119565b60008167ffffffffffffffff81111561104d5761104c612fe7565b5b60405190808252806020026020018201604052801561107b5781602001602082028036833780820191505090505b509050600060075490506000805b8281101561110f578573ffffffffffffffffffffffffffffffffffffffff166110b1826109d5565b73ffffffffffffffffffffffffffffffffffffffff1614156110fc57808483815181106110e1576110e0612fb8565b5b60200260200101818152505081806110f890612eb1565b9250505b808061110790612eb1565b915050611089565b8396505050505050505b90565b606060086000838152602001908152602001600020805461113c90612e4e565b80601f016020809104026020016040519081016040528092919081815260200182805461116890612e4e565b80156111b55780601f1061118a576101008083540402835291602001916111b5565b820191906000526020600020905b81548152906001019060200180831161119857829003601f168201915b50505050509050919050565b60606111cc8261152b565b61120b576040517f08c379a000000000000000000000000000000000000000000000000000000000815260040161120290612b36565b60405180910390fd5b6000611215611ab4565b905060008151116112355760405180602001604052806000815250611260565b8061123f84611acb565b60405160200161125092919061286c565b6040516020818303038152906040525b915050919050565b611270611597565b73ffffffffffffffffffffffffffffffffffffffff1661128e610d1b565b73ffffffffffffffffffffffffffffffffffffffff16146112e4576040517f08c379a00000000000000000000000000000000000000000000000000000000081526004016112db90612af6565b60405180910390fd5b80600860006007548152602001908152602001600020908051906020019061130d929190612022565b5061131a33600754611c2c565b6007600081548092919061132d90612eb1565b919050555050565b6000600560008473ffffffffffffffffffffffffffffffffffffffff1673ffffffffffffffffffffffffffffffffffffffff16815260200190815260200160002060008373ffffffffffffffffffffffffffffffffffffffff1673ffffffffffffffffffffffffffffffffffffffff16815260200190815260200160002060009054906101000a900460ff16905092915050565b6113d1611597565b73ffffffffffffffffffffffffffffffffffffffff166113ef610d1b565b73ffffffffffffffffffffffffffffffffffffffff1614611445576040517f08c379a000000000000000000000000000000000000000000000000000000000815260040161143c90612af6565b60405180910390fd5b600073ffffffffffffffffffffffffffffffffffffffff168173ffffffffffffffffffffffffffffffffffffffff1614156114b5576040517f08c379a00000000000000000000000000000000000000000000000000000000081526004016114ac90612976565b60405180910390fd5b6114be816119ee565b50565b60007f01ffc9a7000000000000000000000000000000000000000000000000000000007bffffffffffffffffffffffffffffffffffffffffffffffffffffffff1916827bffffffffffffffffffffffffffffffffffffffffffffffffffffffff1916149050919050565b60008073ffffffffffffffffffffffffffffffffffffffff166002600084815260200190815260200160002060009054906101000a900473ffffffffffffffffffffffffffffffffffffffff1673ffffffffffffffffffffffffffffffffffffffff1614159050919050565b600033905090565b816004600083815260200190815260200160002060006101000a81548173ffffffffffffffffffffffffffffffffffffffff021916908373ffffffffffffffffffffffffffffffffffffffff160217905550808273ffffffffffffffffffffffffffffffffffffffff16611612836109d5565b73ffffffffffffffffffffffffffffffffffffffff167f8c5be1e5ebec7d5bd14f71427d1e84f3dd0314c0f7b2291e5b200ac8c7c3b92560405160405180910390a45050565b60006116638261152b565b6116a2576040517f08c379a000000000000000000000000000000000000000000000000000000000815260040161169990612a16565b60405180910390fd5b60006116ad836109d5565b90508073ffffffffffffffffffffffffffffffffffffffff168473ffffffffffffffffffffffffffffffffffffffff16148061171c57508373ffffffffffffffffffffffffffffffffffffffff166117048461068b565b73ffffffffffffffffffffffffffffffffffffffff16145b8061172d575061172c8185611335565b5b91505092915050565b8273ffffffffffffffffffffffffffffffffffffffff16611756826109d5565b73ffffffffffffffffffffffffffffffffffffffff16146117ac576040517f08c379a00000000000000000000000000000000000000000000000000000000081526004016117a390612b16565b60405180910390fd5b600073ffffffffffffffffffffffffffffffffffffffff168273ffffffffffffffffffffffffffffffffffffffff16141561181c576040517f08c379a0000000000000000000000000000000000000000000000000000000008152600401611813906129d6565b60405180910390fd5b611827838383611c4a565b61183260008261159f565b6001600360008573ffffffffffffffffffffffffffffffffffffffff1673ffffffffffffffffffffffffffffffffffffffff16815260200190815260200160002060008282546118829190612d64565b925050819055506001600360008473ffffffffffffffffffffffffffffffffffffffff1673ffffffffffffffffffffffffffffffffffffffff16815260200190815260200160002060008282546118d99190612cdd565b92505081905550816002600083815260200190815260200160002060006101000a81548173ffffffffffffffffffffffffffffffffffffffff021916908373ffffffffffffffffffffffffffffffffffffffff160217905550808273ffffffffffffffffffffffffffffffffffffffff168473ffffffffffffffffffffffffffffffffffffffff167fddf252ad1be2c89b69c2b068fc378daa952ba7f163c4a11628f55a4df523b3ef60405160405180910390a4505050565b61199d848484611736565b6119a984848484611c4f565b6119e8576040517f08c379a00000000000000000000000000000000000000000000000000000000081526004016119df90612956565b60405180910390fd5b50505050565b6000600660009054906101000a900473ffffffffffffffffffffffffffffffffffffffff16905081600660006101000a81548173ffffffffffffffffffffffffffffffffffffffff021916908373ffffffffffffffffffffffffffffffffffffffff1602179055508173ffffffffffffffffffffffffffffffffffffffff168173ffffffffffffffffffffffffffffffffffffffff167f8be0079c531659141344cd1fd0a4f28419497f9722a3daafe3b4186f6b6457e060405160405180910390a35050565b606060405180602001604052806000815250905090565b60606000821415611b13576040518060400160405280600181526020017f30000000000000000000000000000000000000000000000000000000000000008152509050611c27565b600082905060005b60008214611b45578080611b2e90612eb1565b915050600a82611b3e9190612d33565b9150611b1b565b60008167ffffffffffffffff811115611b6157611b60612fe7565b5b6040519080825280601f01601f191660200182016040528015611b935781602001600182028036833780820191505090505b5090505b60008514611c2057600182611bac9190612d64565b9150600a85611bbb9190612efa565b6030611bc79190612cdd565b60f81b818381518110611bdd57611bdc612fb8565b5b60200101907effffffffffffffffffffffffffffffffffffffffffffffffffffffffffffff1916908160001a905350600a85611c199190612d33565b9450611b97565b8093505050505b919050565b611c46828260405180602001604052806000815250611de6565b5050565b505050565b6000611c708473ffffffffffffffffffffffffffffffffffffffff16611e41565b15611dd9578373ffffffffffffffffffffffffffffffffffffffff1663150b7a02611c99611597565b8786866040518563ffffffff1660e01b8152600401611cbb94939291906128ab565b602060405180830381600087803b158015611cd557600080fd5b505af1925050508015611d0657506040513d601f19601f82011682018060405250810190611d0391906123fe565b60015b611d89573d8060008114611d36576040519150601f19603f3d011682016040523d82523d6000602084013e611d3b565b606091505b50600081511415611d81576040517f08c379a0000000000000000000000000000000000000000000000000000000008152600401611d7890612956565b60405180910390fd5b805181602001fd5b63150b7a0260e01b7bffffffffffffffffffffffffffffffffffffffffffffffffffffffff1916817bffffffffffffffffffffffffffffffffffffffffffffffffffffffff191614915050611dde565b600190505b949350505050565b611df08383611e54565b611dfd6000848484611c4f565b611e3c576040517f08c379a0000000000000000000000000000000000000000000000000000000008152600401611e3390612956565b60405180910390fd5b505050565b600080823b905060008111915050919050565b600073ffffffffffffffffffffffffffffffffffffffff168273ffffffffffffffffffffffffffffffffffffffff161415611ec4576040517f08c379a0000000000000000000000000000000000000000000000000000000008152600401611ebb90612a96565b60405180910390fd5b611ecd8161152b565b15611f0d576040517f08c379a0000000000000000000000000000000000000000000000000000000008152600401611f0490612996565b60405180910390fd5b611f1960008383611c4a565b6001600360008473ffffffffffffffffffffffffffffffffffffffff1673ffffffffffffffffffffffffffffffffffffffff1681526020019081526020016000206000828254611f699190612cdd565b92505081905550816002600083815260200190815260200160002060006101000a81548173ffffffffffffffffffffffffffffffffffffffff021916908373ffffffffffffffffffffffffffffffffffffffff160217905550808273ffffffffffffffffffffffffffffffffffffffff16600073ffffffffffffffffffffffffffffffffffffffff167fddf252ad1be2c89b69c2b068fc378daa952ba7f163c4a11628f55a4df523b3ef60405160405180910390a45050565b82805461202e90612e4e565b90600052602060002090601f0160209004810192826120505760008555612097565b82601f1061206957805160ff1916838001178555612097565b82800160010185558215612097579182015b8281111561209657825182559160200191906001019061207b565b5b5090506120a491906120a8565b5090565b5b808211156120c15760008160009055506001016120a9565b5090565b60006120d86120d384612bff565b612bda565b9050828152602081018484840111156120f4576120f361301b565b5b6120ff848285612e0c565b509392505050565b600061211a61211584612c30565b612bda565b9050828152602081018484840111156121365761213561301b565b5b612141848285612e0c565b509392505050565b600081359050612158816134e5565b92915050565b60008135905061216d816134fc565b92915050565b60008135905061218281613513565b92915050565b60008151905061219781613513565b92915050565b600082601f8301126121b2576121b1613016565b5b81356121c28482602086016120c5565b91505092915050565b600082601f8301126121e0576121df613016565b5b81356121f0848260208601612107565b91505092915050565b6000813590506122088161352a565b92915050565b60006020828403121561222457612223613025565b5b600061223284828501612149565b91505092915050565b6000806040838503121561225257612251613025565b5b600061226085828601612149565b925050602061227185828601612149565b9150509250929050565b60008060006060848603121561229457612293613025565b5b60006122a286828701612149565b93505060206122b386828701612149565b92505060406122c4868287016121f9565b9150509250925092565b600080600080608085870312156122e8576122e7613025565b5b60006122f687828801612149565b945050602061230787828801612149565b9350506040612318878288016121f9565b925050606085013567ffffffffffffffff81111561233957612338613020565b5b6123458782880161219d565b91505092959194509250565b6000806040838503121561236857612367613025565b5b600061237685828601612149565b92505060206123878582860161215e565b9150509250929050565b600080604083850312156123a8576123a7613025565b5b60006123b685828601612149565b92505060206123c7858286016121f9565b9150509250929050565b6000602082840312156123e7576123e6613025565b5b60006123f584828501612173565b91505092915050565b60006020828403121561241457612413613025565b5b600061242284828501612188565b91505092915050565b60006020828403121561244157612440613025565b5b600082013567ffffffffffffffff81111561245f5761245e613020565b5b61246b848285016121cb565b91505092915050565b60006020828403121561248a57612489613025565b5b6000612498848285016121f9565b91505092915050565b60006124ad838361284e565b60208301905092915050565b6124c281612d98565b82525050565b60006124d382612c71565b6124dd8185612c9f565b93506124e883612c61565b8060005b8381101561251957815161250088826124a1565b975061250b83612c92565b9250506001810190506124ec565b5085935050505092915050565b61252f81612daa565b82525050565b600061254082612c7c565b61254a8185612cb0565b935061255a818560208601612e1b565b6125638161302a565b840191505092915050565b600061257982612c87565b6125838185612cc1565b9350612593818560208601612e1b565b61259c8161302a565b840191505092915050565b60006125b282612c87565b6125bc8185612cd2565b93506125cc818560208601612e1b565b80840191505092915050565b60006125e5603283612cc1565b91506125f08261303b565b604082019050919050565b6000612608602683612cc1565b91506126138261308a565b604082019050919050565b600061262b601c83612cc1565b9150612636826130d9565b602082019050919050565b600061264e601c83612cc1565b915061265982613102565b602082019050919050565b6000612671602483612cc1565b915061267c8261312b565b604082019050919050565b6000612694601983612cc1565b915061269f8261317a565b602082019050919050565b60006126b7602c83612cc1565b91506126c2826131a3565b604082019050919050565b60006126da603883612cc1565b91506126e5826131f2565b604082019050919050565b60006126fd602a83612cc1565b915061270882613241565b604082019050919050565b6000612720602983612cc1565b915061272b82613290565b604082019050919050565b6000612743602083612cc1565b915061274e826132df565b602082019050919050565b6000612766601683612cc1565b915061277182613308565b602082019050919050565b6000612789602c83612cc1565b915061279482613331565b604082019050919050565b60006127ac602083612cc1565b91506127b782613380565b602082019050919050565b60006127cf602983612cc1565b91506127da826133a9565b604082019050919050565b60006127f2602f83612cc1565b91506127fd826133f8565b604082019050919050565b6000612815602183612cc1565b915061282082613447565b604082019050919050565b6000612838603183612cc1565b915061284382613496565b604082019050919050565b61285781612e02565b82525050565b61286681612e02565b82525050565b600061287882856125a7565b915061288482846125a7565b91508190509392505050565b60006020820190506128a560008301846124b9565b92915050565b60006080820190506128c060008301876124b9565b6128cd60208301866124b9565b6128da604083018561285d565b81810360608301526128ec8184612535565b905095945050505050565b6000602082019050818103600083015261291181846124c8565b905092915050565b600060208201905061292e6000830184612526565b92915050565b6000602082019050818103600083015261294e818461256e565b905092915050565b6000602082019050818103600083015261296f816125d8565b9050919050565b6000602082019050818103600083015261298f816125fb565b9050919050565b600060208201905081810360008301526129af8161261e565b9050919050565b600060208201905081810360008301526129cf81612641565b9050919050565b600060208201905081810360008301526129ef81612664565b9050919050565b60006020820190508181036000830152612a0f81612687565b9050919050565b60006020820190508181036000830152612a2f816126aa565b9050919050565b60006020820190508181036000830152612a4f816126cd565b9050919050565b60006020820190508181036000830152612a6f816126f0565b9050919050565b60006020820190508181036000830152612a8f81612713565b9050919050565b60006020820190508181036000830152612aaf81612736565b9050919050565b60006020820190508181036000830152612acf81612759565b9050919050565b60006020820190508181036000830152612aef8161277c565b9050919050565b60006020820190508181036000830152612b0f8161279f565b9050919050565b60006020820190508181036000830152612b2f816127c2565b9050919050565b60006020820190508181036000830152612b4f816127e5565b9050919050565b60006020820190508181036000830152612b6f81612808565b9050919050565b60006020820190508181036000830152612b8f8161282b565b9050919050565b6000602082019050612bab600083018461285d565b92915050565b6000604082019050612bc6600083018561285d565b612bd36020830184612526565b9392505050565b6000612be4612bf5565b9050612bf08282612e80565b919050565b6000604051905090565b600067ffffffffffffffff821115612c1a57612c19612fe7565b5b612c238261302a565b9050602081019050919050565b600067ffffffffffffffff821115612c4b57612c4a612fe7565b5b612c548261302a565b9050602081019050919050565b6000819050602082019050919050565b600081519050919050565b600081519050919050565b600081519050919050565b6000602082019050919050565b600082825260208201905092915050565b600082825260208201905092915050565b600082825260208201905092915050565b600081905092915050565b6000612ce882612e02565b9150612cf383612e02565b9250827fffffffffffffffffffffffffffffffffffffffffffffffffffffffffffffffff03821115612d2857612d27612f2b565b5b828201905092915050565b6000612d3e82612e02565b9150612d4983612e02565b925082612d5957612d58612f5a565b5b828204905092915050565b6000612d6f82612e02565b9150612d7a83612e02565b925082821015612d8d57612d8c612f2b565b5b828203905092915050565b6000612da382612de2565b9050919050565b60008115159050919050565b60007fffffffff0000000000000000000000000000000000000000000000000000000082169050919050565b600073ffffffffffffffffffffffffffffffffffffffff82169050919050565b6000819050919050565b82818337600083830152505050565b60005b83811015612e39578082015181840152602081019050612e1e565b83811115612e48576000848401525b50505050565b60006002820490506001821680612e6657607f821691505b60208210811415612e7a57612e79612f89565b5b50919050565b612e898261302a565b810181811067ffffffffffffffff82111715612ea857612ea7612fe7565b5b80604052505050565b6000612ebc82612e02565b91507fffffffffffffffffffffffffffffffffffffffffffffffffffffffffffffffff821415612eef57612eee612f2b565b5b600182019050919050565b6000612f0582612e02565b9150612f1083612e02565b925082612f2057612f1f612f5a565b5b828206905092915050565b7f4e487b7100000000000000000000000000000000000000000000000000000000600052601160045260246000fd5b7f4e487b7100000000000000000000000000000000000000000000000000000000600052601260045260246000fd5b7f4e487b7100000000000000000000000000000000000000000000000000000000600052602260045260246000fd5b7f4e487b7100000000000000000000000000000000000000000000000000000000600052603260045260246000fd5b7f4e487b7100000000000000000000000000000000000000000000000000000000600052604160045260246000fd5b600080fd5b600080fd5b600080fd5b600080fd5b6000601f19601f8301169050919050565b7f4552433732313a207472616e7366657220746f206e6f6e20455243373231526560008201527f63656976657220696d706c656d656e7465720000000000000000000000000000602082015250565b7f4f776e61626c653a206e6577206f776e657220697320746865207a65726f206160008201527f6464726573730000000000000000000000000000000000000000000000000000602082015250565b7f4552433732313a20746f6b656e20616c7265616479206d696e74656400000000600082015250565b7f5468697320746f6b656e2062656c6f6e6720746f20736f6d656f6e6500000000600082015250565b7f4552433732313a207472616e7366657220746f20746865207a65726f2061646460008201527f7265737300000000000000000000000000000000000000000000000000000000602082015250565b7f4552433732313a20617070726f766520746f2063616c6c657200000000000000600082015250565b7f4552433732313a206f70657261746f7220717565727920666f72206e6f6e657860008201527f697374656e7420746f6b656e0000000000000000000000000000000000000000602082015250565b7f4552433732313a20617070726f76652063616c6c6572206973206e6f74206f7760008201527f6e6572206e6f7220617070726f76656420666f7220616c6c0000000000000000602082015250565b7f4552433732313a2062616c616e636520717565727920666f7220746865207a6560008201527f726f206164647265737300000000000000000000000000000000000000000000602082015250565b7f4552433732313a206f776e657220717565727920666f72206e6f6e657869737460008201527f656e7420746f6b656e0000000000000000000000000000000000000000000000602082015250565b7f4552433732313a206d696e7420746f20746865207a65726f2061646472657373600082015250565b7f506c656173652073656e64206d6f726520657468657200000000000000000000600082015250565b7f4552433732313a20617070726f76656420717565727920666f72206e6f6e657860008201527f697374656e7420746f6b656e0000000000000000000000000000000000000000602082015250565b7f4f776e61626c653a2063616c6c6572206973206e6f7420746865206f776e6572600082015250565b7f4552433732313a207472616e73666572206f6620746f6b656e2074686174206960008201527f73206e6f74206f776e0000000000000000000000000000000000000000000000602082015250565b7f4552433732314d657461646174613a2055524920717565727920666f72206e6f60008201527f6e6578697374656e7420746f6b656e0000000000000000000000000000000000602082015250565b7f4552433732313a20617070726f76616c20746f2063757272656e74206f776e6560008201527f7200000000000000000000000000000000000000000000000000000000000000602082015250565b7f4552433732313a207472616e736665722063616c6c6572206973206e6f74206f60008201527f776e6572206e6f7220617070726f766564000000000000000000000000000000602082015250565b6134ee81612d98565b81146134f957600080fd5b50565b61350581612daa565b811461351057600080fd5b50565b61351c81612db6565b811461352757600080fd5b50565b61353381612e02565b811461353e57600080fd5b5056fea26469706673582212204985565c386a9ed577c0baee99bd0e605664dcce6fdfae0a44fc6bff9055822d64736f6c63430008070033",
  "immutableReferences": {},
  "source": "// SPDX-License-Identifier: MIT\r\npragma solidity 0.8.7;\r\n\r\nimport \"../node_modules/@openzeppelin/contracts/token/ERC721/ERC721.sol\";\r\nimport \"../node_modules/@openzeppelin/contracts/access/Ownable.sol\";\r\nimport \"./TokenERC20.sol\";\r\n\r\ncontract TokenERC721 is ERC721, Ownable {\r\n\r\n    uint256 nextId = 0;\r\n\r\n    mapping (uint => string) private _tokenUri;\r\n\r\n    event BuyToken(uint tokenId, bool success);\r\n\r\n    TokenERC20 private erc20Token; \r\n\r\n    constructor(string memory _name, string memory _symbol, address _erc20Token) ERC721(_name, _symbol) {\r\n        erc20Token = TokenERC20(_erc20Token);\r\n    }\r\n\r\n    function getTokenDetails(uint256 tokenId) public view returns(string memory) {\r\n        return _tokenUri[tokenId];\r\n    }\r\n\r\n    function mint(string memory uri) public onlyOwner {\r\n        _tokenUri[nextId] = uri;\r\n        _safeMint(msg.sender, nextId);\r\n        nextId++;\r\n    }\r\n\r\n    function earnErc20(address reciever ,uint amount) private {\r\n        erc20Token.mint(reciever, amount);\r\n    }\r\n\r\n    function getAllTokenForUser() public view returns(uint256[] memory) {\r\n        uint256 tokenCount = balanceOf(msg.sender);\r\n        if (tokenCount == 0) {\r\n            return new uint256[](0);\r\n        } else {\r\n            uint[] memory result = new uint256[](tokenCount);\r\n            uint256 total = nextId;\r\n            uint256 resultIndex = 0;\r\n            uint256 i;\r\n            for (i = 0; i < total; i++) {\r\n                if (ownerOf(i) == msg.sender) {\r\n                    result[resultIndex] = i;\r\n                    resultIndex++;\r\n                }\r\n            }\r\n            return result;\r\n        }\r\n    }\r\n\r\n    function getAllNotOwnToken() public view returns(uint256[] memory) {\r\n        address owner = owner();\r\n        uint256 tokenCount = balanceOf(owner);\r\n        if (tokenCount == 0) {\r\n            return new uint256[](0);\r\n        } else {\r\n            uint[] memory result = new uint256[](tokenCount);\r\n            uint256 total = nextId;\r\n            uint256 resultIndex = 0;\r\n            uint256 i;\r\n            for (i = 0; i < total; i++) {\r\n                if (ownerOf(i) == owner) {\r\n                    result[resultIndex] = i;\r\n                    resultIndex++;\r\n                }\r\n            }\r\n            return result;\r\n        }\r\n    }\r\n\r\n    function buyToken(uint tokenId) public payable returns (bool) {\r\n        require(msg.value > 0.5 ether, \"Please send more ether\");\r\n        address owner = owner();\r\n        require(ownerOf(tokenId) == owner, \"This token belong to someone\");\r\n        _safeTransfer(owner, msg.sender, tokenId, \"\");\r\n        emit BuyToken(tokenId, true);\r\n        return true;\r\n    }\r\n}",
  "sourcePath": "C:\\Users\\DELL\\OneDrive\\Desktop\\nft-quickstart\\contracts\\TokenERC721.sol",
  "compiler": {
    "name": "solc",
    "version": "0.8.7+commit.e28d00a7.Emscripten.clang"
  },
  "schemaVersion": "3.4.3",
  "updatedAt": "2021-09-15T10:35:25.290Z",
  "networkType": "ethereum",
  "devdoc": {
    "kind": "dev",
    "methods": {
      "approve(address,uint256)": {
        "details": "See {IERC721-approve}."
      },
      "balanceOf(address)": {
        "details": "See {IERC721-balanceOf}."
      },
      "getApproved(uint256)": {
        "details": "See {IERC721-getApproved}."
      },
      "isApprovedForAll(address,address)": {
        "details": "See {IERC721-isApprovedForAll}."
      },
      "name()": {
        "details": "See {IERC721Metadata-name}."
      },
      "owner()": {
        "details": "Returns the address of the current owner."
      },
      "ownerOf(uint256)": {
        "details": "See {IERC721-ownerOf}."
      },
      "renounceOwnership()": {
        "details": "Leaves the contract without owner. It will not be possible to call `onlyOwner` functions anymore. Can only be called by the current owner. NOTE: Renouncing ownership will leave the contract without an owner, thereby removing any functionality that is only available to the owner."
      },
      "safeTransferFrom(address,address,uint256)": {
        "details": "See {IERC721-safeTransferFrom}."
      },
      "safeTransferFrom(address,address,uint256,bytes)": {
        "details": "See {IERC721-safeTransferFrom}."
      },
      "setApprovalForAll(address,bool)": {
        "details": "See {IERC721-setApprovalForAll}."
      },
      "supportsInterface(bytes4)": {
        "details": "See {IERC165-supportsInterface}."
      },
      "symbol()": {
        "details": "See {IERC721Metadata-symbol}."
      },
      "tokenURI(uint256)": {
        "details": "See {IERC721Metadata-tokenURI}."
      },
      "transferFrom(address,address,uint256)": {
        "details": "See {IERC721-transferFrom}."
      },
      "transferOwnership(address)": {
        "details": "Transfers ownership of the contract to a new account (`newOwner`). Can only be called by the current owner."
      }
    },
    "version": 1
  },
  "userdoc": {
    "kind": "user",
    "methods": {},
    "version": 1
  }
}